{
  "_format": "hh-sol-artifact-1",
  "contractName": "GoogleDrive",
  "sourceName": "contracts/GoogleDrive.sol",
  "abi": [
    {
      "inputs": [],
      "stateMutability": "nonpayable",
      "type": "constructor"
    },
    {
      "inputs": [
        {
          "internalType": "address",
          "name": "",
          "type": "address"
        },
        {
          "internalType": "uint256",
          "name": "",
          "type": "uint256"
        }
      ],
      "name": "accessList",
      "outputs": [
        {
          "internalType": "address",
          "name": "user",
          "type": "address"
        },
        {
          "internalType": "bool",
          "name": "access",
          "type": "bool"
        }
      ],
      "stateMutability": "view",
      "type": "function"
    },
    {
      "inputs": [
        {
          "internalType": "address",
          "name": "_user",
          "type": "address"
        },
        {
          "internalType": "string",
          "name": "_url",
          "type": "string"
        }
      ],
      "name": "add",
      "outputs": [],
      "stateMutability": "nonpayable",
      "type": "function"
    },
    {
      "inputs": [
        {
          "internalType": "address",
          "name": "_user",
          "type": "address"
        }
      ],
      "name": "allow",
      "outputs": [],
      "stateMutability": "nonpayable",
      "type": "function"
    },
    {
      "inputs": [
        {
          "internalType": "address",
          "name": "_user",
          "type": "address"
        }
      ],
      "name": "disallow",
      "outputs": [],
      "stateMutability": "nonpayable",
      "type": "function"
    },
    {
      "inputs": [
        {
          "internalType": "address",
          "name": "_user",
          "type": "address"
        }
      ],
      "name": "display",
      "outputs": [
        {
          "internalType": "string[]",
          "name": "",
          "type": "string[]"
        }
      ],
      "stateMutability": "view",
      "type": "function"
    },
    {
      "inputs": [],
      "name": "owner",
      "outputs": [
        {
          "internalType": "address",
          "name": "",
          "type": "address"
        }
      ],
      "stateMutability": "view",
      "type": "function"
    },
    {
      "inputs": [
        {
          "internalType": "address",
          "name": "",
          "type": "address"
        },
        {
          "internalType": "address",
          "name": "",
          "type": "address"
        }
      ],
      "name": "ownerShip",
      "outputs": [
        {
          "internalType": "bool",
          "name": "",
          "type": "bool"
        }
      ],
      "stateMutability": "view",
      "type": "function"
    },
    {
      "inputs": [],
      "name": "shareAccess",
      "outputs": [
        {
          "components": [
            {
              "internalType": "address",
              "name": "user",
              "type": "address"
            },
            {
              "internalType": "bool",
              "name": "access",
              "type": "bool"
            }
          ],
          "internalType": "struct Access[]",
          "name": "",
          "type": "tuple[]"
        }
      ],
      "stateMutability": "view",
      "type": "function"
    },
    {
      "inputs": [
        {
          "internalType": "address",
          "name": "",
          "type": "address"
        },
        {
          "internalType": "uint256",
          "name": "",
          "type": "uint256"
        }
      ],
      "name": "value",
      "outputs": [
        {
          "internalType": "string",
          "name": "",
          "type": "string"
        }
      ],
      "stateMutability": "view",
      "type": "function"
    }
  ],
  "bytecode": "0x608060405234801561001057600080fd5b50600080546001600160a01b03191633179055610bd5806100326000396000f3fe608060405234801561001057600080fd5b50600436106100a35760003560e01c80638da5cb5b11610076578063bc8bef811161005b578063bc8bef8114610194578063eb39113f146101a9578063ff9913e8146101c957600080fd5b80638da5cb5b14610156578063a9ed9cb81461018157600080fd5b80630f8b27d7146100a857806311d62de9146100d157806336d6da551461010f57806370c2b41914610124575b600080fd5b6100bb6100b63660046107ae565b6101dc565b6040516100c8919061081e565b60405180910390f35b6100ff6100df366004610838565b600360209081526000928352604080842090915290825290205460ff1681565b60405190151581526020016100c8565b61012261011d366004610881565b610295565b005b6101376101323660046107ae565b6102cc565b604080516001600160a01b0390931683529015156020830152016100c8565b600054610169906001600160a01b031681565b6040516001600160a01b0390911681526020016100c8565b61012261018f366004610943565b61030f565b61019c6103f6565b6040516100c8919061095e565b6101bc6101b7366004610943565b610479565b6040516100c891906109b8565b6101226101d7366004610943565b610609565b600260205281600052604060002081815481106101f857600080fd5b9060005260206000200160009150915050805461021490610a1a565b80601f016020809104026020016040519081016040528092919081815260200182805461024090610a1a565b801561028d5780601f106102625761010080835404028352916020019161028d565b820191906000526020600020905b81548152906001019060200180831161027057829003601f168201915b505050505081565b6001600160a01b0382166000908152600260209081526040822080546001810182559083529120016102c78282610aa2565b505050565b600160205281600052604060002081815481106102e857600080fd5b6000918252602090912001546001600160a01b0381169250600160a01b900460ff16905082565b3360009081526003602090815260408083206001600160a01b03851684529091528120805460ff191690555b336000908152600160205260409020548110156103f25733600090815260016020526040902080546001600160a01b03841691908390811061037f5761037f610b62565b6000918252602090912001546001600160a01b0316036103e0573360009081526001602052604081208054839081106103ba576103ba610b62565b60009182526020909120018054911515600160a01b0260ff60a01b199092169190911790555b806103ea81610b78565b91505061033b565b5050565b336000908152600160209081526040808320805482518185028101850190935280835260609492939192909184015b8282101561047057600084815260209081902060408051808201909152908401546001600160a01b0381168252600160a01b900460ff16151581830152825260019092019101610425565b50505050905090565b60606001600160a01b0382163314806104b557506001600160a01b038216600090815260036020908152604080832033845290915290205460ff165b61051f576040517f08c379a000000000000000000000000000000000000000000000000000000000815260206004820152601660248201527f596f7520646f6e27742068617665204163636573732100000000000000000000604482015260640160405180910390fd5b6001600160a01b038216600090815260026020908152604080832080548251818502810185019093528083529193909284015b828210156105fe57838290600052602060002001805461057190610a1a565b80601f016020809104026020016040519081016040528092919081815260200182805461059d90610a1a565b80156105ea5780601f106105bf576101008083540402835291602001916105ea565b820191906000526020600020905b8154815290600101906020018083116105cd57829003601f168201915b505050505081526020019060010190610552565b505050509050919050565b3360009081526003602090815260408083206001600160a01b03851684529091528120805460ff1916600117905580805b336000908152600160205260409020548110156106bb5733600090815260016020526040902080546001600160a01b03861691908390811061067e5761067e610b62565b6000918252602090912001546001600160a01b0316036106a957826106a281610b78565b9350508091505b806106b381610b78565b91505061063a565b508160000361074457505033600090815260016020818152604080842081518083019092526001600160a01b0395861682528183018481528154948501825590855291909320925192909101805491511515600160a01b027fffffffffffffffffffffff0000000000000000000000000000000000000000009092169290931691909117179055565b33600090815260016020819052604090912080548390811061076857610768610b62565b60009182526020909120018054911515600160a01b0260ff60a01b19909216919091179055505050565b80356001600160a01b03811681146107a957600080fd5b919050565b600080604083850312156107c157600080fd5b6107ca83610792565b946020939093013593505050565b6000815180845260005b818110156107fe576020818501810151868301820152016107e2565b506000602082860101526020601f19601f83011685010191505092915050565b60208152600061083160208301846107d8565b9392505050565b6000806040838503121561084b57600080fd5b61085483610792565b915061086260208401610792565b90509250929050565b634e487b7160e01b600052604160045260246000fd5b6000806040838503121561089457600080fd5b61089d83610792565b9150602083013567ffffffffffffffff808211156108ba57600080fd5b818501915085601f8301126108ce57600080fd5b8135818111156108e0576108e061086b565b604051601f8201601f19908116603f011681019083821181831017156109085761090861086b565b8160405282815288602084870101111561092157600080fd5b8260208601602083013760006020848301015280955050505050509250929050565b60006020828403121561095557600080fd5b61083182610792565b602080825282518282018190526000919060409081850190868401855b828110156109ab57815180516001600160a01b03168552860151151586850152928401929085019060010161097b565b5091979650505050505050565b6000602080830181845280855180835260408601915060408160051b870101925083870160005b82811015610a0d57603f198886030184526109fb8583516107d8565b945092850192908501906001016109df565b5092979650505050505050565b600181811c90821680610a2e57607f821691505b602082108103610a4e57634e487b7160e01b600052602260045260246000fd5b50919050565b601f8211156102c757600081815260208120601f850160051c81016020861015610a7b5750805b601f850160051c820191505b81811015610a9a57828155600101610a87565b505050505050565b815167ffffffffffffffff811115610abc57610abc61086b565b610ad081610aca8454610a1a565b84610a54565b602080601f831160018114610b055760008415610aed5750858301515b600019600386901b1c1916600185901b178555610a9a565b600085815260208120601f198616915b82811015610b3457888601518255948401946001909101908401610b15565b5085821015610b525787850151600019600388901b60f8161c191681555b5050505050600190811b01905550565b634e487b7160e01b600052603260045260246000fd5b600060018201610b9857634e487b7160e01b600052601160045260246000fd5b506001019056fea2646970667358221220dd84e40a7928db6236f680de62e1c412e854b42362cd6e925d395fb884f2555f64736f6c63430008110033",
  "linkReferences": {},
  "deployedLinkReferences": {}
}